:100000000C9434000C9430010C9451000C94510069
:100010000C9451000C9451000C9451000C9451001C
:100020000C9451000C9451000C9451000C9451000C
:100030000C9451000C9451000C9451000C945100FC
:100040000C9451000C9451000C9451000C945100EC
:100050000C9451000C9451000C9451000C945100DC
:100060000C9451000C94510011241FBECFEFD8E026
:10007000DEBFCDBF11E0A0E0B1E0E6E4F7E002C0F2
:1000800005900D92AC35B107D9F722E0ACE5B1E0AF
:1000900001C01D92A43DB207E1F70E945A010C94E1
:1000A000A1030C94000010925F0110925E0185B1D3
:1000B0008C7F85B9289A4A99FECF089581E090E017
:1000C00090935F0180935E0185B18C7F85B9299AF9
:1000D0000895CF93DF93EC01309BFECF0E94040282
:1000E000CE010E945202DF91CF910895FC018081E0
:1000F0009FEF980F933060F5918120911101921339
:100100000FC032812091100132130AC03381209137
:100110000F01321305C0348120910E01321759F0BE
:100120009F3FC9F492819F3FC9F493819F3FC9F4D7
:1001300094819F3FC9F48D7F8130C9F485818111FD
:1001400019C081E090E026812223B1F080E008957B
:1001500080E090E0089580E090E0089580E090E0F5
:10016000089580E090E0089580E090E0089581E0B7
:1001700090E0089580E090E00895CF92DF92EF92B2
:10018000FF920F931F93CF93DF937C016B01EA01E2
:10019000BA010E942E02088119810D3681E01807EC
:1001A00054F426E030E040E050E0B701C6010E9480
:1001B0003D020E945E00DF91CF911F910F91FF9051
:1001C000EF90DF90CF900895DB012D913C91119736
:1001D0001216130664F4E82FF92F80E090E01192D4
:1001E00001962D913C91119782179307C4F31D92AC
:1001F0001C920E94530008950F931F93CF93DF9397
:10020000EC01809111018983809110018A83809192
:100210000F018B8380910E018C8380915E01909100
:100220005F01892B89F082E08883FA0181818D83C7
:1002300080818E830081118120E030E047E050E032
:10024000CE010E943D0204C081E088831D821E828F
:10025000CE010E941203DF91CF911F910F9108955B
:100260001F920F920FB60F9211242F933F934F932B
:100270005F936F937F938F939F93AF93BF93EF930E
:10028000FF936CE571E082E691E00E94E4000E9439
:100290005300FF91EF91BF91AF919F918F917F910B
:1002A0006F915F914F913F912F910F900FBE0F90E3
:1002B0001F901895CF93DF93CDB7DEB7C058D140CC
:1002C0000FB6F894DEBF0FBECDBF8FEF84B938985C
:1002D000399A1AB85A9AE89AE9E6F0E08081816082
:1002E00080832FE78AE196E0215080409040E1F73B
:1002F00000C000000E940C020E94F601789480E089
:1003000091E09093D1028093D0020E94530082E149
:1003100091E00E94740380E091E090935D018093EE
:100320005C0180915C0190915D01181619067CF4C6
:1003300080E090E041E4FC01EE59FE4F40830196DD
:1003400020915C0130915D0182179307A4F30E9414
:100350005E003099FECF87E893E10197F1F700C086
:100360000000CE0101960E946900CE0101960E9414
:100370007600892B89F189818230B9F0833011F1BF
:10038000813051F587E893E10197F1F700C0000053
:100390004CE551E062E671E0CE0101960E94FC005E
:1003A00083E391E00E94740317C04CE551E062E6DC
:1003B00071E0CE0101960E94BD008FE391E00E94A2
:1003C00074030AC06CE571E082E691E00E94E400EB
:1003D0008CE491E00E9474039FE72AE186E091504B
:1003E00020408040E1F700C00000B3CFE1E8F0E03A
:1003F00080818160808308952FB7F8948091840074
:10040000909185002FBF08958FB7F89410928500C2
:10041000109284008FBF08951092C50081E88093E8
:10042000C400E2ECF0E0808186608083E1ECF0E0E3
:100430008081886180830895CF93C82F8A3019F412
:100440008DE00E941C02E0ECF0E0908195FFFDCF72
:10045000C093C60080E090E0CF910895FC01258113
:1004600030E0322F2227FB0131832083FC0186817B
:10047000282BFB013183208308950F931F931016BF
:1004800011066CF4FB01E20FF31FDC01A40FB51F92
:100490000E0F1F1F81918D93E017F107D9F71F9160
:1004A0000F9108952F923F924F925F926F927F9299
:1004B0008F929F92AF92BF92CF92DF92EF92FF9274
:1004C0000F931F93CF93DF935C013099FECF0E946F
:1004D000FC01EC010E940402309BFECF0E94FC0153
:1004E0007C010E9404026701D594C794C7018C0D5A
:1004F0009D1D8C179D070CF061C080E8F50180837D
:100500005FC08114910421F0F501E80DF91D1082FE
:10051000F7E0CF2F20E0D22F71013501680C791C54
:100520003099FECF0E94FC018C010E940402309998
:1005300003C086B38130D9F70E94FC011C010E94E0
:100540000402EC0CFD1CE214F304BCF4E016F1060A
:100550007CF4F501E80DF91D81E090E09C0102C0FA
:10056000220F331FCA95E2F7E9018081C82BC083AF
:10057000F501E80DF91D11822BC0C1018C0D9D1DE7
:100580008017910764F4F3012081C2010C2E02C090
:10059000880F991F0A94E2F7822BF3018083219739
:1005A000DD2314F07101BCCFFFEF8F1A9F0A20E802
:1005B000821621E092060CF4A4CF0AC0F501108245
:1005C000C6E0D0E0812C912C44244394512CA5CF3B
:1005D000DF91CF911F910F91FF90EF90DF90CF901F
:1005E000BF90AF909F908F907F906F905F904F9053
:1005F0003F902F900895419AE3EFF1E03197F1F7A2
:1006000000C00000813031F483EF91E00197F1F7F1
:1006100000C000004198E3EFF1E03197F1F700C02E
:10062000000008958F929F92AF92BF92CF92DF9277
:10063000EF92FF920F931F93CF93DF9300D0CDB72C
:10064000DEB76C011A821982BE016F5F7F4F0E9474
:100650002E0229813A81295F3F4F213881E03807F6
:1006600014F020E831E01216130634F57601C20EBC
:10067000D31E6894882483F8912C6894AA24A7F840
:1006800017C0F70180818B2121F081E00E94FB02DD
:1006900003C080E00E94FB02B694015011090115CD
:1006A000110579F7FFEFEF1AFF0AEC14FD0421F0B2
:1006B000082D192DBA2CE5CF8FEC97E00197F1F7B3
:1006C00000C0000080E00E94FB020F900F90DF91BD
:1006D000CF911F910F91FF90EF90DF90CF90BF903F
:1006E000AF909F908F9008950F931F93CF93DF93B8
:1006F000E091D002F091D102238121FF1BC0EC01D7
:1007000000E010E089916091D0027091D102DB018C
:100710001896ED91FC911997882331F00995892B52
:1007200089F30FEF1FEFEECF8AE00995892B11F4C3
:10073000C80102C08FEF9FEFDF91CF911F910F9102
:060740000895F894FFCFBC
:1007460000000002000000001C0200000000010181
:10075600010142726163656C6574206F6E2C2077AF
:10076600616974696E6720666F72207369676E616E
:100776006C2E0053656E642053746174757300416A
:10078600757468656E746963617465004465617546
:0C0796007468656E74696361746500002E
:00000001FF
