S01A0000526563656976657250726F746F74797065432E73726563BC
S11300000C9434000C9451000C9451000C94510045
S11300100C9451000C9451000C9451000C94510018
S11300200C9451000C9451000C9451000C94510008
S11300300C9451000C9451000C9451000C945100F8
S11300400C9451000C9451000C9451000C945100E8
S11300500C9451000C9451000C9451000C945100D8
S11300600C9451000C94510011241FBECFEFD8E022
S1130070DEBFCDBF11E0A0E0B1E0EAE0FFE002C0E6
S113008005900D92A83EB107D9F721E0A8EEB1E0A2
S113009001C01D92AE3EB207E1F70E9483010C94A9
S11300A083070C940000FC01DB018C918183119681
S11300B08C911197828312968C9112978383139655
S11300C08C9184830895CF92DF92EF92FF920F93E5
S11300D01F93CF93DF9300D0CDB7DEB76C011A82A4
S11300E01982FC0180811F928F938EE091E09F938F
S11300F08F930E948C04F60184811F928F938381D5
S11301001F928F9382811F928F9381811F928F936D
S113011080E291E09F938F930E948C04BE016F5FF5
S11301207F4FC6010E9433038A818F9389818F9305
S113013080E491E09F938F930E948C0482E591E088
S11301409F938F930E948C0489819A810FB6F894AF
S1130150DEBF0FBECDBF803831E09307E4F418163C
S11301601906F4F018C0F60181916F011F928F9364
S1130170FF92EF920E948C040F5F1F4F0F900F901D
S11301800F900F900937F1E01F0729F029813A8178
S11301900217130744F38AE090E00E94A0041AC0F7
S11301A0F60187811F928F938CE591E09F938F9343
S11301B00E948C04F8E0CF0ED11C0F900F900F908A
S11301C00F9001E010E00F2EFCE5EF2EF1E0FF2E82
S11301D0F02DDCCF0F900F90DF91CF911F910F91F5
S11301E0FF90EF90DF90CF900895CF93DF93FC01C1
S11301F0379620E030E0C4E2D0E0C901BE010E949D
S11302006404805D81932F5F3F4F211581E038079F
S1130210A1F7DF91CF910895CF93DF93EC0116BC42
S113022085B3817085BB85B5856085BD08C0A89BF5
S113023006C085B5887F85BD80E090E00CC0309B0A
S1130240F6CF85B5887F85BD0E94FE02CE010E944F
S1130250420381E090E0DF91CF910895FC01208179
S11302603FEF320F323068F4223071F425812111CE
S11302700EC031E08681811101C030E0832F922FBE
S1130280089580E090E0089581E090E0089581E091
S113029090E00895CF93DF93EC0181E08883CE0151
S11302A00E9453001D821E82CE010E940204DF912F
S11302B0CF9108950F931F93CF93DF93EC01142FE5
S11302C0052F82E08883CE010E9453000D831E8394
S11302D0CE010E94F500CE010E940204DF91CF916D
S11302E01F910F910895CF93DF93EC0183E08883EE
S11302F0CE010E9453001D821E82CE010E94020480
S1130300DF91CF910895CF93DF93CDB7DEB7C8586F
S1130310D1400FB6F894DEBF0FBECDBF3898399ADE
S1130320219A229885B115B88FEFCF57DE4F888375
S1130330C158D140CE57DE4F8883C258D140CD57E3
S1130340DE4F8883C358D140CC57DE4F8883C458CE
S1130350D14081E0CB57DE4F8883C558D140CA577E
S1130360DE4F8883C658D140C957DE4F8883C758AB
S1130370D140C857DE4F8883C858D1400E94F0024C
S11303800E9411030E94060380E091E09093EB0128
S11303908093EA012FE78AE196E021508040904063
S11303A0E1F700C0000081E691E00E94A70400E0AC
S11303B010E081E00F2EF3E09F2EF02D0F2EFEE6CD
S11303C0EF2EF1E0FF2EF02DC12CA12CB12CDD2459
S11303D0D39401C08D2DEFE4F3EC3197F1F700C015
S11303E000001A9BC0C0882309F4BDC0C8018370F3
S11303F09078992324F401978C6F9F6F0196813034
S1130400910509F4B3C01CF4892B49F09BC08230D8
S1130410910509F44FC0039709F4C5C093C040E0A7
S113042051E0BE016B577E4FCE0101960E945A01E6
S11304300F5F1F4F0F3F110511F00CF085C08C2D7D
S113044092C0BE016F577E4FCE0101960E944A01B1
S1130450CE0101960E940C01892B61F41F929F9298
S1130460FF92EF920E948C040F900F900F900F90C8
S11304708C2D79C088E991E00E94A704CE010196F1
S11304800E942E01892B29F088EB91E00E94A70499
S113049004C08FEC91E00E94A704CE0101960E9453
S11304A063000F5F1F4F0F3F110511F00CF050C098
S11304B08C2D59C0BE016B577E4FCE0101960E9410
S11304C073010F5F1F4F0F3F110511F00CF044C073
S11304D08C2D49C0BE016F577E4FCE0101960E94FC
S11304E04A01CE0101960E940C01892B61F41F92EE
S11304F09F92FF92EF920E948C040F900F900F90A6
S11305000F908C2D30C088E991E00E94A704CE01A1
S113051001960E942E01892B29F088EB91E00E941C
S1130520A70404C08FEC91E00E94A704CE010196B9
S11305300E9463000F5F1F4F0F3F110509F084F401
S11305408C2D11C08C2D0FC00A2D1B2D8C2D0BC092
S11305500A2D1B2D8C2D07C00A2D1B2D8C2D03C09D
S11305600A2D1B2D8C2D1A9B35CF35CFBE016F570D
S11305707E4FCE0101960E944A01CE0101960E944F
S11305800C01892B09F076CFBE016F577E4FCE0147
S113059001960E944A01CE0101960E940C01892B0A
S11305A009F44FCF67CFBE016F577E4FCE0101963E
S11305B00E944A01CE0101960E940C01892B09F088
S11305C0A2CFBE016F577E4FCE0101960E944A0111
S11305D0CE0101960E940C01892B09F47BCF93CFA5
S11305E0E1E8F0E080818160808308952FB7F8947A
S11305F080918400909185002FBF08958FB7F8945F
S113060010928500109284008FBF0895ECE7F0E00B
S1130610808180648083EAE7F0E08081876880835A
S113062008951092C50081E88093C400E2ECF0E0E4
S1130630808186608083E1ECF0E080818861808342
S11306400895CF93C82F8A3019F48DE00E942103B6
S1130650E0ECF0E0908195FFFDCFC093C60080E010
S113066090E0CF910895FC01258130E0322F2227BC
S1130670FB0131832083FC018681282BFB0131831C
S1130680208308952F923F924F925F926F927F92B0
S11306908F929F92AF92BF92CF92DF92EF92FF928E
S11306A00F931F93CF93DF935C013099FECF0E9489
S11306B0F602EC010E94FE02309BFECF0E94F6027D
S11306C07C010E94FE026701D594C794C7018C0D7A
S11306D09D1D8C179D070CF061C080E8F501808397
S11306E05FC08114910421F0F501E80DF91D108219
S11306F0F7E0CF2F20E0D22F71013501680C791C6F
S11307003099FECF0E94F6028C010E94FE023099BD
S113071003C086B38130D9F70E94F6021C010E94FF
S1130720FE02EC0CFD1CE214F304BCF4E016F1062A
S11307307CF4F501E80DF91D81E090E09C0102C014
S1130740220F331FCA95E2F7E9018081C82BC083C9
S1130750F501E80DF91D11822BC0C1018C0D9D1D01
S11307608017910764F4F3012081C2010C2E02C0AA
S1130770880F991F0A94E2F7822BF3018083219753
S1130780DD2314F07101BCCFFFEF8F1A9F0A20E81C
S1130790821621E092060CF4A4CF0AC0F50110825F
S11307A0C6E0D0E0812C912C44244394512CA5CF55
S11307B0DF91CF911F910F91FF90EF90DF90CF9039
S11307C0BF90AF909F908F907F906F905F904F906D
S11307D03F902F900895419AE3EFF1E03197F1F7BC
S11307E000C00000813031F483EF91E00197F1F70C
S11307F000C000004198E3EFF1E03197F1F700C049
S1130800000008958F929F92AF92BF92CF92DF9291
S1130810EF92FF920F931F93CF93DF9300D0CDB746
S1130820DEB76C011A821982BE016F5F7F4F0E948E
S1130830330329813A81295F3F4F213881E038070A
S113084014F020E831E01216130634F57601C20ED6
S1130850D31E6894882483F8912C6894AA24A7F85A
S113086017C0F70180818B2121F081E00E94EB0306
S113087003C080E00E94EB03B694015011090115F6
S1130880110579F7FFEFEF1AFF0AEC14FD0421F0CC
S1130890082D192DBA2CE5CF8FEC97E00197F1F7CD
S11308A000C0000080E00E94EB030F900F90DF91E6
S11308B0CF911F910F91FF90EF90DF90CF90BF9059
S11308C0AF909F908F90089597FB072E16F4009495
S11308D007D077FD09D00E94780407FC05D03EF4C8
S11308E0909581959F4F0895709561957F4F0895D8
S11308F0AA1BBB1B51E107C0AA1FBB1FA617B70742
S113090010F0A61BB70B881F991F5A95A9F780955D
S11309109095BC01CD010895A0E0B0E0E2E9F4E0D7
S11309200C945C07FE01359661917191AF01809141
S1130930EA019091EB010E94D404E2E00C94780760
S11309406091EA017091EB010E94BC0608950F9337
S11309501F93CF93DF93E091EA01F091EB012381A0
S113096021FF1BC0EC0100E010E089916091EA01D5
S11309707091EB01DB011896ED91FC911997882396
S113098031F00995892B89F30FEF1FEFEECF8AE041
S11309900995892B11F4C80102C08FEF9FEFDF91F5
S11309A0CF911F910F910895ACE0B0E0EAEDF4E02F
S11309B00C944C077C016B018A01FC01178216829E
S11309C0838181FFBDC1CE0101964C01F701938162
S11309D0F60193FD859193FF81916F01882309F4BA
S11309E0ABC1853239F493FD859193FF81916F01F9
S11309F0853229F4B70190E00E94BC06E7CF512C60
S1130A00312C20E02032A0F48B3269F030F48032B3
S1130A1059F0833269F420612CC08D3239F080336F
S1130A2039F4216026C02260246023C0286021C0DC
S1130A3027FD27C030ED380F3A3078F426FF06C082
S1130A40FAE05F9E300D1124532E13C08AE0389EC5
S1130A50300D1124332E20620CC08E3221F426FD79
S1130A606BC1206406C08C3611F4206802C088363D
S1130A7041F4F60193FD859193FF81916F018111FA
S1130A80C1CF982F9F7D9554933028F40C5F1F4F4E
S1130A90FFE3F9830DC0833631F0833771F083357A
S1130AA009F05BC022C0F801808189830E5F1F4F6B
S1130AB044244394512C540115C03801F2E06F0EC4
S1130AC0711CF801A080B18026FF03C0652D70E081
S1130AD002C06FEF7FEFC5012C870E94B1062C0185
S1130AE083012C852F77222E17C03801F2E06F0E78
S1130AF0711CF801A080B18026FF03C0652D70E051
S1130B0002C06FEF7FEFC5012C870E94A6062C015F
S1130B102C852068222E830123FC1BC0832D90E0AA
S1130B2048165906B0F4B70180E290E00E94BC0672
S1130B303A94F4CFF50127FC859127FE81915F015A
S1130B40B70190E00E94BC0631103A94F1E04F1ACC
S1130B5051084114510471F7E5C0843611F0893607
S1130B6039F5F80127FF07C0608171818281938183
S1130B700C5F1F4F08C060817181882777FD8095C5
S1130B80982F0E5F1F4F2F76B22E97FF09C09095B6
S1130B908095709561957F4F8F4F9F4F2068B22E3F
S1130BA02AE030E0A4010E94EE06A82EA81844C052
S1130BB0853729F42F7EB22E2AE030E025C0F22FAB
S1130BC0F97FBF2E8F36C1F018F4883579F0B4C0A0
S1130BD0803719F0883721F0AFC02F2F2061B22E53
S1130BE0B4FE0DC08B2D8460B82E09C024FF0AC04A
S1130BF09F2F9660B92E06C028E030E005C020E1A2
S1130C0030E002C020E132E0F801B7FE07C06081A5
S1130C107181828193810C5F1F4F06C06081718155
S1130C2080E090E00E5F1F4FA4010E94EE06A82E04
S1130C30A818FB2DFF77BF2EB6FE0BC02B2D2E7FE1
S1130C40A51450F4B4FE0AC0B2FC08C02B2D2E7EAD
S1130C5005C07A2C2B2D03C07A2C01C0752C24FFDF
S1130C600DC0FE01EA0DF11D8081803311F4297E4F
S1130C7009C022FF06C07394739404C0822F86783F
S1130C8009F0739423FD13C020FF06C05A2C73147B
S1130C9018F4530C5718732C731468F4B70180E2DA
S1130CA090E02C870E94BC0673942C85F5CF7314B6
S1130CB010F4371801C0312C24FF12C0B70180E3AF
S1130CC090E02C870E94BC062C8522FF17C021FFD0
S1130CD003C088E590E002C088E790E0B7010CC04B
S1130CE0822F867859F021FD02C080E201C08BE298
S1130CF027FD8DE2B70190E00E94BC06A51438F4EC
S1130D00B70180E390E00E94BC065A94F7CFAA94FE
S1130D10F401EA0DF11D8081B70190E00E94BC0648
S1130D20A110F5CF332009F451CEB70180E290E051
S1130D300E94BC063A94F6CFF7018681978102C0DF
S1130D408FEF9FEF2C96E2E10C946807FC0105906D
S1130D50615070400110D8F7809590958E0F9F1FB9
S1130D600895FC016150704001900110D8F78095FE
S1130D7090958E0F9F1F08950F931F93CF93DF932A
S1130D80182F092FEB018B8181FD03C08FEF9FEF9B
S1130D9020C082FF10C04E815F812C813D814217AB
S1130DA053077CF4E881F9819F012F5F3F4F39831A
S1130DB02883108306C0E885F985812F0995892B3E
S1130DC029F72E813F812F5F3F4F3F832E83812F51
S1130DD0902FDF91CF911F910F910895FA01AA27C7
S1130DE0283051F1203181F1E8946F936E7F6E5F6A
S1130DF07F4F8F4F9F4FAF4FB1E03ED0B4E03CD018
S1130E00670F781F891F9A1FA11D680F791F8A1FFA
S1130E10911DA11D6A0F711D811D911DA11D20D061
S1130E2009F468943F912AE0269F11243019305D1B
S1130E303193DEF6CF010895462F4770405D41930C
S1130E40B3E00FD0C9F7F6CF462F4F70405D4A3359
S1130E5018F0495D31FD4052419302D0A9F7EACF21
S1130E60B4E0A6959795879577956795BA95C9F750
S1130E7000976105710508959B01AC010A2E069443
S1130E805795479537952795BA95C9F7620F731FFC
S1130E90841F951FA01D08952F923F924F925F9239
S1130EA06F927F928F929F92AF92BF92CF92DF9276
S1130EB0EF92FF920F931F93CF93DF93CDB7DEB7DB
S1130EC0CA1BDB0B0FB6F894DEBF0FBECDBF09946F
S1130ED02A88398848885F846E847D848C849B84C6
S1130EE0AA84B984C884DF80EE80FD800C811B81D4
S1130EF0AA81B981CE0FD11D0FB6F894DEBF0FBE03
S10D0F00CDBFED010895F894FFCF72
S1130F0A00000002000000002103000000004D65FB
S1130F1A737361676520547970653A2025690A00FC
S1130F2A4465766963652049443A20253032783A23
S1130F3A253032783A253032783A253032780A0028
S1130F4A5061796C6F61642053697A653A20256926
S1130F5A0A005061796C6F61643A20002530327856
S1130F6A00446576696365205265736574004E6F43
S1130F7A207265706C792066726F6D20627261638B
S1130F8A656C6574206166746572202569206174D4
S1130F9A74656D7074730A004D65737361676520B7
S1130FAA52656365697665642C2076616C6964614F
S1130FBA74696E672E2E2E0056616C6964206D6505
S1130FCA7373616765207265636569766564004950
S1130FDA4E56414C4944206D6573736167652072AE
S10B0FEA656365697665640026
S9030000FC
